:03000000020006F5
:03005F0002000399
:0300030002009F59
:2000620075B0DE75A0DE7590DE7580DE75B0AD75A0AD7590AD7580AD75B00075A0007590AB
:200082000075800080FEAE82AF8390EFFCEEF0EFA3F090EFFEE51CF0E51DA3F0227E017F8B
:2000A200007508037509DE750A6C750B57750C0B750DFE750E24750FBF7510C3751128753F
:2000C20012CC7513D77514CA7515467516B775176E7518AD7519AF751A43751B347C007D7C
:2000E20000C3EC9405ED940050158C8274E02DF5838C0374612BFBF00CBC00E50D80E290A3
:20010200E03F7428F07D0090E03EEDF07D0090E03DEDF090E0057480F07C067D00C3EC9488
:200122003DED940050108C8274E02DF583E4F00CBC00EA0D80E790FE027400F074E0A3F0C3
:2001420090FE047400F074E2A3F090FE067440F0E4A3F090FE0004F090FE01E0E070F9FCD9
:20016200FDEC2408F987038C8274E22DF583E0FAEBB5020280067E007F00800E0CBC000184
:200182000DC3EC9414ED940040D78E8075800590E000E0FD8D1C751D00900002C007C006B2
:2001A20012008890E001E0FD8D1C751D0090000312008890E002E0FD8D1C751D00900004CF
:2001C20012008890E003E0FD8D1C751D0090000512008890E004E0FD8D1C751D00900006A7
:2001E200120088D006D0078E1C8F1D90000112008890E00AE090E000F090E00BE090E000B0
:1C020200F090E00CE090E000F090E00DE090E000F090E00EE090E000F002006255
:06003500E478FFF6D8FD9F
:200013007900E94400601B7A00900222780175A000E493F2A308B8000205A0D9F4DAF2756F
:02003300A0FF2C
:20003B007800E84400600A790175A000E4F309D8FC7800E84400600C7900900001E4F0A3C3
:04005B00D8FCD9FAFA
:0D00060075811D12021EE5826003020003D9
:04021E0075820022C3
:00000001FF
